:020000042000DA
:100000000000012009000020DFF800F05900002066
:1000100070B50346002004E053F8204041F820402A
:10002000401CD51702EB9575012606EBA505854208
:10003000F2DC70BD00BF011EA0F10100FBD17047D2
:10004000044900BF086800F020000028FAD0486882
:1000500070470000003801404124064D09E0204669
:10006000621CD4B2A8470448FFF7E4FF5A2C00D121
:100070004124F4E77D00002040420F00044900BF06
:100080000A6802F08002002AFAD048607047000037
:100090000038014000B5034603E01878FFF7EEFF93
:1000A0005B1C18780028F8D100BD000010491148E9
:1000B000026844F204031A4302600F48026822F007
:1000C000F0020260026842F090020260026822F4CC
:1000D00070620260026842F48062026045228A60B7
:1000E00042F20C02CA600A6922F440520A61704767
:0C00F000003801401810024004080140D4
:0400000500000000F7
:00000001FF
