:020000040800F2
:1000000008C70020450100083B2C0008792900089A
:10001000392C0008210D0008B9320008000000004A
:10002000000000000000000000000000592D000842
:10003000890D0008000000003D2C00085B2D000821
:100040006B0100086B0100086B0100086B010008E0
:100050006B0100086B0100086B0100086B010008D0
:100060006B0100086B0100086B0100086B010008C0
:100070006B0100086B0100086B0100086B010008B0
:100080006B0100086B0100086B0100086B010008A0
:100090006B0100086B0100086B01000835170008B0
:1000A0006B0100086B0100086B0100086B01000880
:1000B0006B0100086B0100086B0100086B01000870
:1000C0006B0100086B0100086B0100086B01000860
:1000D0006B010008113000086B0100083D3000087A
:1000E0006B0100086B0100086B0100086B01000840
:1000F0006B0100086B0100086B0100086B01000830
:100100006B0100086B0100086B0100086B0100081F
:100110006B0100086B010008C12D00086B0100088D
:100120006B0100086B0100086B0100086B010008FF
:10013000DFF80CD000F0A2FB00480047E1430008C4
:1001400008C700200948804709480047094B186044
:10015000D0F800D041680847FEE7FEE7FEE7FEE77B
:10016000FEE7FEE7FEE7FEE7FEE7FEE7BD2D00083F
:100170003101000808ED00E0202A04DB203A21FAD2
:1001800002F00021704721FA02F3D040C2F12002B0
:100190009140084319467047004870477C69000841
:1001A00010B50446FFF7F8FF0068005D00F001009D
:1001B00010BDA0F14101192900D82030704710B5B9
:1001C000431A934209D28318881803E010F8011DDE
:1001D00003F8011D521EF9D210BD40EA01039B072E
:1001E00003D009E008C9121F08C0042AFAD203E0AC
:1001F00011F8013B00F8013B521EF9D210BDD2B2FA
:1002000001E000F8012B491EFBD270470022F6E7FF
:1002100010B513460A4604461946FFF7F0FF20467C
:1002200010BD034611F8012B00F8012B002AF9D16B
:10023000184670470246C9B200E0401C0378002B04
:10024000FBD102E003788B4203D0401E9042F9D2EA
:100250000020704710B508E00A4602E0A34208D02B
:10026000521C1378002BF9D1401C0478002CF3D1D8
:10027000002010BD0FB400B58DB010A909900B90EF
:1002800000914FF0FF300A9000200C900548069036
:10029000054807906A4609A80F9900F009F90DB0C2
:1002A0005DF814FBCD040008EB0400082DE9FF5FA6
:1002B0001D464FF0FF3BD5E9014691465F464FF0A2
:1002C0000008A9697F1C01988847296A82468847E7
:1002D0000028F6D1BAF1FF3F0CD024F4C064002E00
:1002E00019DD600614D5BAF12B0F09D0BAF12D0F24
:1002F0000ED103E0584604B0BDE8F09F44F480649A
:10030000A9697F1C01988847761E8246002E02DD6F
:10031000BAF1300F03D0B9F1000F26D032E0A9694D
:10032000761E44F400747F1C019888478246002E94
:1003300005DDBAF1780F06D0BAF1580F03D0B9F144
:10034000000F10D01EE0B9F1000F02D0B9F1100F6C
:1003500018D1A969761E24F400747F1C019888477F
:100360008246102002E0082000E00A20814609E0D1
:1003700008FB0908A969761E44F400747F1C0198E3
:1003800088478246002E05DD4946504600F07BF83E
:100390000028EDDAE96901988847A00502D46FF0DA
:1003A0000100A8E7E00725D1600613D5600502D556
:1003B000C8F1000000E0404629680A1D2A6009686B
:1003C000220501D5087015E0220701D5088011E04B
:1003D00008600FE02868011D29600068210502D52A
:1003E00080F8008006E0210702D5A0F8008001E037
:1003F000C0F8008038467EE730B50B460146002045
:100400002022012409E021FA02F59D4205D303FAD6
:1004100002F5491B04FA02F52844151EA2F1010257
:10042000F1DC30BD2DE9F05F0546002092469B4689
:1004300088460646814640241BE0284641464746FA
:100440002246FFF799FE53465A46C01A914110D3EF
:1004500011461846224600F023FA2D1A67EB0108D0
:100460004F4622460120002100F01AFA17EB00093E
:100470004E41201EA4F10104DFDC484631462A46E5
:100480004346BDE8F09F3A2800D2303820F02002E1
:10049000412A01D3A2F13700884201D34FF0FF3047
:1004A00070470000026811441378016018467047D5
:1004B000D160044951610449116200211161114662
:1004C00000F010BAA5040008A1010008426842B17A
:1004D000016811F8013B23B1521EC0E90012184611
:1004E00070470121C160881E704742685AB1C368D5
:1004F000016843B983688B4205D0491E521CC0E98C
:100500000012002070474FF0FF3070472DE9FE4F7A
:10051000804681EA0300C00F0C46009021F00041A4
:1005200023F00045B8EB0200A94105D24046214620
:1005300090461C460B46024623F00040104347D02D
:10054000270DC7F30A00C3F30A510290401A019025
:1005500040286BDAC3F3130040F4801B00989246E6
:1005600020B10023D2EB030A63EB0B0B0198594631
:10057000C0F14002504600F093F906460D46504641
:100580005946019A00F09BF910EB080061410024E4
:1005900087EA115284EAE7731A4340D0009A62B3A3
:1005A000019A012A4FEA075215DC001B61EB020198
:1005B0004FF0004202EA0752CDE90042001C41F52B
:1005C000801132462B4600F032FB03B0BDE8F08FBD
:1005D00040462146F9E7001B61EB0201001C41F592
:1005E000801300185B412018A2F5001747EB0301A8
:1005F00040EAD570B6196D4111E06D084FEA360634
:1006000045EAC0754FEA0752001B61EB0201001C6E
:1006100041F5801149084FEA300000195141324636
:100620002B4603B0BDE8F04F00F0F2BA009801226B
:1006300040000023D0EB020263EBE07300982146F8
:100640004FEAE074B8EB000061EB0401E9E783F0E6
:1006500000435BE781F0004158E72DE9FE4F81EA56
:10066000030404F0004421F0004100944FF0000B1B
:1006700023F0004350EA01045ED052EA03045BD049
:10068000C3F30A54C1F30A552C44A4F2F334019481
:10069000A0FB0254C1F3130141F48011C3F313030F
:1006A00043F4801301FB024400FB034E840A970AC3
:1006B00044EA815447EA8357A4FB076802958D0AF0
:1006C00005FB07854FEA932C04FB0C542705029D7C
:1006D0004FEA065847EA1637B5EB08056EEB070CEC
:1006E000870E920E47EA811742EA8312A7FB0201A6
:1006F000B6EB0B0164EB00042B0D43EA0C335E18E0
:1007000044EB1C50DA465146E7FB0201C5F31304E3
:100710004FEA0B3343EA14534FEA0432019C43EA95
:100720000603A4F10C040294009CCDE900B400F08F
:100730007EFA03B0BDE8F08F00200146F9E72DE90D
:10074000F04D81EA030404F0004B21F0004514460B
:100750004FF0000A23F0004150EA050220D054EA8D
:1007600001021DD0C5F30A570246C5F31303C1F3B6
:100770001300C1F30A5640F4801543F48013A7EB2D
:100780000608101BD64608F2FD3873EB050002D3AD
:1007900008F1010801E092185B41B8F1000F03DA9B
:1007A00000200146BDE8F08D00204FF48011064680
:1007B00084460EE0171B73EB050705D3121B63EB92
:1007C000050306434CEA010C49084FEA3000921831
:1007D0005B4150EA0107EDD152EA030012D082EAF0
:1007E000040083EA0501084305D0101BAB4106D283
:1007F0000122002306E000224FF0004302E06FF0E8
:10080000010253101AEB06004CEB085110EB0A00E2
:1008100041EB0B01BDE8F04D00F0FAB9C1F30A520B
:10082000C1F3130140F2FF3341F480119A4202DA1E
:1008300000200146704740F233439A42A2F233420D
:1008400002DC5242FFF798BC00F02AB830B5041E13
:1008500071F1000404DB4FF00044404264EB0101FD
:10086000141E73F1000405DB1C464FF00043524296
:1008700063EB0403994208BF904230BD064C074D1C
:1008800006E0E06840F0010394E807009847103460
:10089000AC42F6D3FFF750FC486C0008686C0008C7
:1008A000202A04DB203A00FA02F100207047914030
:1008B000C2F1200320FA03F3194390407047202A25
:1008C00006DBCB17203A41FA02F043EAE07306E078
:1008D00041FA02F3D040C2F1200291400843194688
:1008E000704700002DE9F34F8BB04FF0000801F185
:1008F0000C000C464FF0010B46460DF1080A019022
:100900006269012101989047051E2DD0252D2CD01C
:10091000216A8847C0B16269012101989047216A24
:1009200088470028F7D1411E62690198904700E08E
:10093000761CA1690B988847216A88470028F7D15F
:10094000E1690B988847DBE7A1690B988847074660
:10095000A84201D1761CD3E7E1690B9888477F1C38
:1009600002D1B8F1000F6FD046E1002762693D4621
:100970003946019890472A2804D1626901210198DB
:1009800090470125DFF88492626901210198904720
:10099000A0F130010A290AD24F45E5DC07EB8701B7
:1009A00000EB4107303FDFD445F01005ECE7E906E6
:1009B00001D46FF000476C280AD04C2814D0682866
:1009C00015D06A280DD074281CD07A281AD01DE0C2
:1009D00062690121019890476C2802D045F0040516
:1009E00014E045F002050DE045F020050AE06269DB
:1009F000012101989047682802D045F0080505E0DC
:100A000045F400656269012101989047C4E90157E6
:100A100065283DD019DC58287AD00CDC452837D021
:100A200004DC252826D0412831D131E046282FD0BA
:100A300047282CD12CE05B2877D0612828D0632868
:100A40007CD0642823D15AE0D0E06F2848D008DC5D
:100A500066281DD067281BD0692821D06E2816D1A2
:100A600027E0702845D0732868D0752847D07828AB
:100A70000DD14DE0A1690B988847054625283FF424
:100A800069AFE1690B9888476D1C3FF46AAFB3E02A
:100A900023466A466FF001000B99AFF300809EE099
:100AA00045F040006060A80723464FF0000236D4AE
:100AB0003EE0E8077FF447AF2068011D2160006831
:100AC000290501D506701BE7290701D5068017E720
:100AD000A90703D5F117C0E9006111E706600FE728
:100AE00045F040006060A80723464FF0080216D486
:100AF0001EE040F60E0125EA0100606016E045F0B8
:100B000040006060A80723464FF00A0207D40FE0B8
:100B100045F040006060A80708D5234610226FF01A
:100B200001000B99AFF3008059E007E02346102243
:100B30006FF001000B99FFF7B9FB50E04FF000098F
:100B40004F464B46632802D05B2806D040E0E806BB
:100B500001D40120A06001273AE0626901210198D7
:100B600090475E2805D14FF0010962694946019816
:100B70009047216939B900210A46534643F821209C
:100B8000491C0829FADBB0B3216969B9C11700EB28
:100B9000D16253110AEB830122F01F02821A012055
:100BA0000B68904003430B606269012101989047F4
:100BB0005D28E8D1B9F1000F09D00020514651F865
:100BC0002020D24341F82020401C0828F7DB02AB4C
:100BD000224600976FF001000B99AFF300800028C8
:100BE0000CDA401C08D1BBF1000F05D04FF0FF30EC
:100BF0000DB0BDE8F08FFFE74046F9E7E90701D106
:100C000008F1010806444FF0000B79E6CCCCCC0C7F
:100C100010B5141E73F1000408DA401C41F1000104
:100C200092185B411A4301D120F0010010BD2DE95B
:100C3000F04D92469B4611B1B1FA81F202E0B0FA52
:100C400080F220329046FFF72BFE04460F4640EA22
:100C50000A0041EA0B0153465A46084313D0114695
:100C600053EA010019D0C8F140025046FFF784FA58
:100C700005460E46504659464246FFF711FE0843C8
:100C800005D0012004E020463946BDE8F08D002063
:100C9000054346EAE0762C4337430A986305E40AA5
:100CA000A0EB08000022FD0A44EA47540A3002D5AE
:100CB00000200146E9E7010510196941DDE9084511
:100CC00000196941BDE8F04DA2E770B58C1810F825
:100CD000015B15F0070301D110F8013B2A1106D181
:100CE00010F8012B03E010F8016B01F8016B5B1E9B
:100CF000F9D12B0705D40023521E0DD401F8013B76
:100D0000FAE710F8013BCB1A921C03E013F8015BE1
:100D100001F8015B521EF9D5A142D8D3002070BD65
:100D2000FEE700000648016841F080710160054857
:100D300000214160016841F001010160704700003D
:100D4000FCED00E0001000E011B50C480C490D4C22
:100D500000680022B0FBF1F30098616843436068CB
:100D60008842FCD002D9A0EB010102E06FEA010148
:100D700001440A4401469A42F1D318BD2480002060
:100D800040420F00001000E07047000003490A686D
:100D90000B689B1A8342FBD3704700000080002041
:100DA00070B5012200249103114800F0EBFE11A060
:100DB00002F084FA1448FFF7C7FF4FF4FA75214692
:100DC00012A002F07BFA2B46002218A118A000F016
:100DD000FFF928B1214617A002F070FA012070BD7A
:100DE00000F0D2FA641CE4B20A2CE8D3002070BDF3
:100DF000002001400D0A415420746573742E2E2E7C
:100E00002E2E0D0A0000000080841E000D0A4E7573
:100E10006D626572206F662041542074657374732F
:100E20003A25642E2E2E2E2E2E0D0A004F4B00003A
:100E3000415400000D0A54686520415420746573C4
:100E40007420737461727465642073756363657371
:100E50007366756C6C792025642E2E2E2E2E2E0D29
:100E60000A00000010B526A002F028FA2BA002F01C
:100E700025FA012251032F4800F084FEFFF790FF6E
:100E80000028FBD04FF4FA74234600222AA12BA09D
:100E900000F09EF90028F7D02AA002F00FFA0120F6
:100EA00000F042FA0028FAD02FA002F007FA35A08D
:100EB00000F0D4F80028FAD0002236A138A000F0C3
:100EC000ADF80028F8D039A002F0F8F9012000F0C0
:100ED000DBF90028FAD03BA002F0F0F940A242A1D1
:100EE000012000F08FFB0028F8D03FA325A22CA101
:100EF0003F4802F0E3F9BDE810403EA002F0DEB941
:100F00000D0AD5FDD4DAC5E4D6C320455350383296
:100F10003636202E2E2E2E2E2E0D0A000D0ACAB980
:100F2000C4DC2045535038323636202E2E2E2E2E3D
:100F30002E0D0A00002001404F4B00004154453067
:100F4000000000000D0AD5FDD4DAC5E4D6C3B9A46B
:100F5000D7F7C4A3CABDCEAA204150202E2E2E2ED4
:100F60002E2E0D0A000000000D0AD5FDD4DAB4B40F
:100F7000BDA857694669C8C8B5E3202E2E2E2E2E6F
:100F80002E0D0A003139322E3136382E3132372EBD
:100F90003233000077696C64666972650000000096
:100FA00042696E6768756F4C696E6B000D0AD4CA32
:100FB000D0EDB6E0C1ACBDD3202E2E2E2E2E2E0DA0
:100FC0000A0000000D0ABFAAC6F4B7FECEF1C6F7AC
:100FD000C4A3CABD202E2E2E2E2E2E0D0A000000D8
:100FE0003138303000000000383030300000000070
:100FF000D86B00080D0A57616974696E6720666FC7
:101000007220636C69656E7420636F6E6E656374C5
:10101000696F6E2E2E2E0D0A0000000000B59FB0E5
:101020000B460092024606A101A802F057F94FF4C0
:101030007A73002208A101A800F0CAF81FB000BD11
:1010400041542B43575341503D222573222C2225D6
:1010500073222C312C2564004F4B000000B589B061
:10106000024608A1684602F039F941F288330022AD
:1010700008A1684600F0ACF8002800D0012009B0B3
:1010800000BD000041542B43495041503D2225737F
:10109000220000004F4B00002DE9F047304CB4F81F
:1010A0000004304D00044FF4806938D5B4F80004D2
:1010B0000027C0F30E002CA12754204604F062FE46
:1010C000DFF8B080012628B12BA002F0F7F86E708F
:1010D00088F8006030A1224804F054FE30B130A0FE
:1010E00002F0ECF86F702E7088F8007035A11C4883
:1010F00004F048FE18B1411C33A002F0DFF8494665
:101100001748FFF783F8B4F800046FF30E00A4F853
:101110000004B4F8000420F40040A4F800042B4CB0
:10112000B4F80004000419D56878002816D0B4F883
:1011300000040023C0F30E022146184604F5806423
:1011400000F09EF949462148FFF760F820886FF3C8
:101150000E002080208820F400402080BDE8F08729
:101160005CA10020FA8600202C434F4E4E4543548C
:1011700000000000048000200D0A5B537973746541
:101180006D5D20436C69656E7420636F6E6E656380
:10119000746564210D0A0000434C4F534544000020
:1011A0000D0A5B53797374656D5D20436C69656EE0
:1011B0007420646973636F6E6E6563746564210D7A
:1011C0000A0000003A00000025730000A8A50020D6
:1011D0002DE9F041204C0F461D46B4F80014164688
:1011E0006FF30E01A4F8001402461CA11D4802F082
:1011F00007F857EA06002BD04FF47A706843FFF7E0
:10120000A3FD214618A002F059F8B4F800140020FC
:10121000C1F30E01605421461AA002F04FF8B4F851
:1012200000046FF30E00A4F80004B4F8000420F4E6
:101230000040A4F800042FB1394626B1204604F03E
:10124000A1FD28B93146044804F09CFD002800D0D7
:101250000120BDE8F08100005CA1002025730D0A8B
:1012600000000000004800405265636569766564CF
:101270002072617720646174613A5B25735D0D0AA9
:10128000000000002573000000B585B008B1012200
:1012900000E0002206A1684602F020F84FF4FA733D
:1012A000002207A16846FFF793FF05B000BD0000CC
:1012B00041542B4349504D55583D256400000000D2
:1012C0004F4B000070B5164886B0816941F48071BB
:1012D000816180694FF4005400F480700490012013
:1012E000CDE900400320039000200E4E0290694695
:1012F000304600F04BFB650069463046009500F033
:1013000045FB00F0C3F901222946304600F03AFCC3
:1013100006B021463046BDE87040002200F032BCE5
:10132000001002400020014040F6C41328B10128FB
:1013300007D0022809D00020704706A208A109A002
:1013400006E004A206A10AA002E002A204A10BA0EA
:10135000FFF73EBF6E6F206368616E676500000037
:101360004F4B000041542B43574D4F44453D3100F6
:1013700041542B43574D4F44453D320041542B437C
:10138000574D4F44453D330070B5094D4FF48044EF
:1013900000222146284600F0F5FB0648FFF7D4FC62
:1013A00021462846BDE87040012200F0EBBB00005A
:1013B0000020014020A107002DE9F041224C804689
:1013C00086B0B4F8000416460D466FF30E00A4F87C
:1013D0000004B4F8000420F40040A4F800044FF422
:1013E000806739462046FEF711FF052E06D22B46B0
:1013F000324616A1684601F071FF04E02A4618A1A2
:10140000684601F06BFF6A4619A11B4801F0F8FE1F
:10141000B4F800046FF30E00A4F80004B4F800045C
:1014200020F40040A4F8000439460748FEF7EEFE19
:10143000AAB24FF47A734146104801F04DFA06B053
:101440000120BDE8F08100005CA1002041542B4345
:10145000495053454E443D25642C2564000000004E
:1014600041542B43495053454E443D2564000000F0
:1014700025730D0A000000000048004060A5002010
:101480002DE9F047394D86B01C469046894628B173
:101490000A4637A1284601F0B3FE5EE0052C06D2CD
:1014A0001346224633A1684601F018FF03E036A137
:1014B000684601F013FF384CB4F800046FF30E00D7
:1014C000A4F80004B4F8000420F40040A4F80004D8
:1014D0004FF4806A51462046FEF798FE6A462FA1D7
:1014E000284601F08DFE4FF4FA76354642F2107729
:1014F00004E03846FFF728FC0A3D20D029A1264801
:1015000004F040FC0028F4D0CDB1B4F800046FF32F
:101510000E00A4F80004B4F8000420F40040A4F87D
:10152000000451461C48FEF771FE1FFA88F233464C
:1015300049461D4801F0D0F94FF47A7406E01BA02B
:1015400010E03846FFF700FC0A3C0AD020A1124800
:1015500004F018FC0028F4D01CB1012006B0BDE84E
:10156000F0871DA001F0AAFE0020F7E70048004028
:101570002573000041542B43495053454E443D25AB
:10158000642C25640000000041542B43495053450E
:101590004E443D25640000005CA1002025730D0A27
:1015A000000000003E00000060A500205B45737055
:1015B000383236365D2054696D656F757420666FFC
:1015C000722077616974696E6720273E270D0A00D3
:1015D00053454E44204F4B005B455350383236360E
:1015E0005D2054696D656F75742077616974696EEB
:1015F0006720666F72202753454E44204F4B270DBE
:101600000A00000030B5BDB015464FF4FA740B4621
:10161000E0B1012213A1684601F060FE2A4616A13E
:101620001EA801F05BFE2346002217A16846FFF7C3
:10163000CFFD48B12346002213A11EA8FFF7C8FD25
:1016400010B101203DB030BD0020FBE7002205A114
:10165000684601F043FE234600220BA16846FFF7CF
:10166000B7FDEFE741542B4349505345525645527D
:101670003D25642C2573000041542B43495053549D
:101680004F3D2573000000004F4B000030B585B082
:10169000244800250295C16941F48021C161C169D6
:1016A00001F480210491816941F008018161806920
:1016B0001D4C00F0080004904FF480600090022060
:1016C0000190032003906946204600F05FF9E01482
:1016D000CDE9000569462046029500F057F9144C03
:1016E000124820604FF4E130C4E901050C20E560A8
:1016F000C4E904502046A56101F07BF82068C16868
:1017000041F02001C1602068C16841F01001C16052
:1017100000220121272000F0B7FA272000F0A7FAC5
:1017200005B030BD00100240000C014000480040F0
:1017300060A500204FF4807000F01CB972B6FEE77F
:10174000064A0021D16106490A6942F002020A6193
:101750004861086940F0400008617047209500200A
:1017600000200240044B0022DA61044A136943F06E
:101770000103136101807047209500200020024082
:1017800014480022C168CB06134904D5CA6942F047
:101790000202CA611022C3685B0705D5CB6943F01A
:1017A0000103CB6142F00402C369DB0707D0CB69B8
:1017B00043F00403CB61C16921F00101C161A2F5CD
:1017C0008071013901D0C2607047C16921F0010107
:1017D000C1617047002002402095002070B5054689
:1017E00000F0D6F90646114C09E0681C07D025B177
:1017F00000F0CEF9801BA84201D9032070BDE0683B
:10180000C007F2D1E068800601D52020E060E068E2
:10181000C00605D4E069C00702D1E068400703D5DF
:10182000FFF7AEFF012070BD002070BD0020024018
:1018300070B5044600F0ACF90546601C02D00448BF
:101840000078044400F0A4F9401BA042FAD370BD14
:10185000188000202DE9F05F07461C4888460024C8
:10186000017E15461E46012909D0012181460176D7
:101870004CF2503A5046FFF7B1FF18B122E0022077
:10188000BDE8F09F012F02D0022F00D00427D346DD
:10189000DFF83CA0220128463146FEF76DFC81B2FC
:1018A00008EB4400FFF75EFF5846FFF797FFDAF8B2
:1018B000102022F00102CAF8102018B9641CE4B20A
:1018C000BC42E7D3002289F81820D9E720950020F0
:1018D000002002402DE9F041B0F5807F42D1002088
:1018E00002F034FC064640072DD5002002F034FCFF
:1018F000040024D04FF400621B4F944205D91446D3
:101900003946002002F0F4FF06E0024616490020A6
:1019100002F0EEFF022C02D33878AA2801D000256D
:101920000BE022461049114802F096FA07E0785D74
:101930000F4903F06FF86D1CADB2A542F7D3042137
:10194000002003F034FEF00703D00121002003F053
:101950002EFE16F00A0F05D0BDE8F041FF21002051
:1019600003F025BEBDE8F081FCA90020FCB10020F9
:10197000D0870020044910B50A68024202D00860EE
:10198000FFF7A8FF10BD0000140401402DE9F84F37
:10199000DFF8C8910024A9F1040B23460F2709F1B1
:1019A000040AABF1040ED1E00125A54006EA0502C8
:1019B000AA4276D1DFF8A8C14E68A6EB0C086645AE
:1019C0002BD00DDC032E34D005DC36B3012E19D01C
:1019D000022E2FD11BE0112E16D0122E2AD119E083
:1019E000B8F5881F19D006DCB8F5803F15D0B8F5DA
:1019F000801F1FD111E0B8F5001F0ED0B8F5041FED
:101A000018D10AE0CB6815E0CB681B1D12E0CB684B
:101A100008330FE0CB680C330CE08B682BB1012B43
:101A20004FF0080303D0456104E0042302E00561A0
:101A300000E00023FF2A01D8064601E000F1040679
:101A40004FEA840501D9A5F12005D6F8008007FAF0
:101A500005FC28EA0C0803FA05F548EA0508C6F86B
:101A600000804D68ED0070D53E4DAE6946F0010630
:101A7000AE61AD6924F0030605F0010500953A4D0D
:101A800006EB050CDCF80850A607360F07FA06F837
:101A900025EA0805DFF8D480404503D14FF000085F
:101AA00025E052E0DFF8C880404502D14FF0010840
:101AB0001DE0DFF8C080404502D14FF0020816E07B
:101AC000DFF8B480404502D14FF003080FE0DFF8A3
:101AD000AC80404502D14FF0040808E0DFF8A08058
:101AE000404502D14FF0050801E04FF0060808FA22
:101AF00006F848EA0508CCF808804D68D9F8006077
:101B0000ED024D4601D5164300E096432E604D6828
:101B1000DAF80060AD02554601D5164300E0964361
:101B20002E604D68DBF80060AD035D4601D51643BD
:101B300000E096432E604D68DEF80060ED037546C8
:101B400001D5164300E096432E60641C0A681646D1
:101B5000E2407FF429AFBDE8F88F0000080401409F
:101B60000000111000100240000001400008014078
:101B7000000C014000100140001401400018014019
:101B8000001C01400AB1016170470904FBE7000035
:101B90000148806870470000188000200248816872
:101BA000027811448160704718800020074810B502
:101BB000016841F010010160032000F085F80F205A
:101BC00000F006F800F024F8002010BD00200240CC
:101BD00070B50D4D04464FF47A712878B1FBF0F0E2
:101BE0000A490968B1FBF0F000F078FC48B9102C04
:101BF00007D200222146501E00F046F800206C60FB
:101C000070BD012070BD00001880002024800020DD
:101C10000C4808B5816941F001018161816901F0D9
:101C200001010091C16941F08051C161C06900F0BA
:101C3000805000900448416821F0E06141F000715B
:101C4000416008BD001002400000014000280DDB8B
:101C500000F01F02012191404009800000F1E020C6
:101C6000C0F88011BFF34F8FBFF36F8F704700280C
:101C700009DB00F01F02012191404009800000F1C2
:101C8000E020C0F800117047F0B40E4B1B680C4602
:101C9000C3F30223C3F10705042D00D90425191D40
:101CA000072901D2002300E0DB1E012606FA05F118
:101CB000491E214099409E40761E16403143F0BC9B
:101CC00001F020BB0CED00E0064900F007020868B7
:101CD0004FF6FF03184040EA0220034A1043086011
:101CE000704700000CED00E00000FA052DE9F04718
:101CF0000F46050061D0434E306800F00700B8423F
:101D000009D2306820F0070038433060306800F0B6
:101D10000700B84251D128683B4C810712D54007D3
:101D200003D5606840F4E06060602878000703D560
:101D3000606840F4605060606068A96820F0F0005E
:101D4000084360602878C00728D06868012810D050
:101D50002168022810D0890700292EDA616821F055
:101D6000030101436160FFF713FF804641F28839A8
:101D70000DE021688903EFE78901EDE7FFF708FF30
:101D8000A0EB0801494502D90320BDE8F08760684F
:101D9000696800F00C00B0EB810FEFD1306800F003
:101DA0000700B8420BD9306820F007003843306094
:101DB000306800F00700B84201D00120E5E728783C
:101DC000400705D56068E96820F4E060084360607A
:101DD0002878000706D56068296920F4605040EA39
:101DE000C100606000F038F86168084AC1F303116F
:101DF000515CC8400649086006480068FFF7E8FEE5
:101E00000020C2E70020024000100240E268000803
:101E1000248000201C80002004480549006849688F
:101E2000044AC1F30221515CC8407047248000205D
:101E300000100240F268000804480549006849683B
:101E4000044AC1F3C221515CC8407047248000207D
:101E500000100240F26800080E4A51680E4801F076
:101E60000C03042B11D0082B0FD10C48C1F3834372
:101E7000C903C05C0AD55168084AC1F34041921EAB
:101E8000515C054A5043B0FBF1F0704704494843A8
:101E9000704700000010024000127A00D26800086B
:101EA00000093D002DE9F84F040070D02078C04DA6
:101EB000C00749D06868C0F38100012807D068686E
:101EC000C0F38100022809D16868C00306D52868DC
:101ED000800339D560680028E7D035E06068B0F548
:101EE000803F0BD010B1B0F5A02F11D0286820F49E
:101EF00080302860286820F4802002E0286840F4C0
:101F000080302860606890B1FFF742FE06460AE024
:101F1000286840F480202860F0E700BFFFF738FE13
:101F2000801B642873D828688003F7D50CE0FFF77E
:101F30002FFE064605E000BFFFF72AFE801B64283F
:101F4000F0D828688003F7D420789A4E80074FF0A5
:101F500001094FF0000839D5686810F00C0F07D060
:101F60006868C0F38100022809D16868C00306D4FC
:101F70002868800714D52069012808D110E020695D
:101F8000B0B1C6F80090FFF703FE074605E00AE18E
:101F9000FFF7FEFDC01B0228C4D828688007F7D5CC
:101FA0002868616920F0F80040EAC10028600DE06F
:101FB000C6F80080FFF7ECFD074604E0FFF7E8FDF8
:101FC000C01B022823D828688007F7D42078000790
:101FD0002CD57948A169D9B1C0F80090FFF7D8FD98
:101FE000074604E0FFF7D4FDC01B02280FD8686A3B
:101FF0008007F7D571484FF4FA510068B0FBF1F053
:10200000009000BF0098411E0091FAD20EE080E0DF
:10201000C0F80080FFF7BCFD074604E0FFF7B8FDFD
:10202000C01B022875D8686A8007F7D4207840075B
:1020300060D5E8690027C00008D4E86940F0805006
:10204000E861E869012700F0805000905C48016871
:10205000C90513D40168834641F480710160FFF71C
:1020600097FD824606E000BFFFF792FDA0EB0A0055
:1020700064284ED8DBF80000C005F5D5E0680128DB
:102080000AD008B1052813D0286A20F00100286280
:10209000286A20F0040002E0286A40F0010028626B
:1020A000E06841F2883B98B1FFF772FD82460BE091
:1020B000286A40F004002862EEE700BFFFF768FDE1
:1020C000A0EB0A0159455AD8286A8007F6D50CE0DA
:1020D000FFF75EFD824605E0FFF75AFDA0EB0A011F
:1020E00059454CD8286A8007F6D41FB1E86920F01A
:1020F0008050E861E06988B36968C1F38101022911
:1021000044D00228C6F8608004D0FFF741FD0446A1
:1021100038E034E0FFF73CFD074604E0FFF738FD08
:10212000C01B02282BD828688001F7D4206AB0F59C
:10213000803F05D16868A16820F4003008436860DA
:10214000D4E908010843696821F474110843686000
:10215000C6F86090FFF71CFD044606E025E000BFCE
:10216000FFF716FD001B022809D828688001F7D563
:102170001BE000BFFFF70CFD001B022802D9032063
:10218000BDE8F88F28688001F4D40EE00128F7D06C
:102190006868226A00F48031914204D1616A00F4D7
:1021A0007010884201D00120EAE70020E8E7000033
:1021B000001002400000424280044242248000207D
:1021C0000070004070B5040009D0606A002540B17D
:1021D00025616561A56294F8510040B10CE00120D1
:1021E00070BD6068B0F5827FF4D0E561F2E784F8F5
:1021F0005050204600F040F8022084F8510020683A
:10220000016821F040010160A088218900F48270FA
:1022100001F404410843A18901F400610843217CD1
:1022200001F002010843217D01F001010843218BE7
:1022300001F400710843217F01F03801084394F84C
:10224000201001F080010843218D01F40051084362
:1022500021680860A069042101EA104021684860F3
:102260002068C16921F40061C1616565012084F8BD
:102270005100002070BD000030B585B000240094EE
:1022800001940294039400681549884225D11548A9
:10229000C16941F48041C161C16901F48041049187
:1022A000816941F00801816180690F4D00F00800EB
:1022B00004904FF4204000900220019003200390EE
:1022C00069462846FFF762FB4FF48040CDE90004E1
:1022D000694628460294FFF759FB05B030BD00005F
:1022E0000038004000100240000C01402DE9FF4F73
:1022F00081B01D46934604464FF001090E9EFFF73C
:1023000047FC074694F851006168012806D0B1F5F2
:10231000827F3CD1A168C9BB042838D1029800282B
:1023200071D0BBF1000FFBD0002DF9D094F8500014
:1023300001282CD04FF0010A84F850A094F85100E5
:10234000042802D0052084F851004FF00008C4F89A
:102350005480C4F838B0E587A58702992163E586E3
:10236000A586C4F84080C4F8448020680168490606
:1023700003D4016841F040010160E068B0F5006FEE
:10238000606808D0F0B3012D49D081E0FFE702205A
:1023900005B0BDE8F08F08B1012D39D1206B21685F
:1023A0000088C860206B801C2063E08E401EE086A1
:1023B0002EE02068816889070FD5E18E69B1B9F1F7
:1023C000010F0AD1216B0988C160206B801C20633A
:1023D000E08E401EE0864FF0000920688168C90742
:1023E0000CD0E18F51B1C068A16B0880A06B801C3C
:1023F000A063E08F401EE0874FF00109FFF7C8FBA4
:10240000C01B01E00BE067E0B04201D3701C50D16B
:10241000E08E0028CDD1E08F0028CAD13EE0206BAD
:10242000216800780873206B401C2063E08E401EFA
:10243000E0862DE02068816889070FD5E18E69B1BB
:10244000B9F1010F0AD1216B09780173206B401C8F
:102450002063E08E401EE0864FF00009206881680E
:10246000C9070CD0E18F51B1C068A16B0870A06B97
:10247000401CA063E08F401EE0874FF00109FFF78A
:1024800087FBC01BB04202D3701C01D011E086B1A3
:10249000E08E0028CED1E08F0028CBD13A463146DD
:1024A000204600F0CCFB50B12020606584F85080BD
:1024B00012E084F851A084F85080032068E7A068F7
:1024C00018B92068C1688068009084F851A084F829
:1024D0005080606D0028F1D0012059E710B5401EF2
:1024E000B0F1807F01D3012010BD4FF0E024606186
:1024F0000F21601700F006FF0020A0610720206177
:10250000002010BD7047704770B590F83C20012A3C
:102510002CD0012480F83C40022280F83D20036842
:102520005A689D6822F070060A6832435A60104B60
:1025300002689A420ED00F4B9A420BD0B2F1804FF4
:1025400008D00D4B9A4205D00C4B9A4202D00C4B4E
:102550009A4204D1496825F080031943916080F8BC
:102560003D40002180F83C10084670BD022070BD3F
:10257000002C0140003401400004004000080040ED
:10258000000C004010B5040003D094F83D0010B1D9
:1025900007E0012010BD002084F83C00204600F038
:1025A0001FF8022084F83D00211D206800F01AFC6D
:1025B000012084F8460084F83E0084F83F0084F847
:1025C000400084F8410084F8420084F8430084F815
:1025D000440084F8450084F83D00002010BD000050
:1025E00008B500680B49884212D10B48C16941F017
:1025F0001001C161C069002200F0100000900121AB
:102600003620FFF741FBBDE808403620FFF72FBB1F
:1026100008BD0000001000400010024090F83D107E
:10262000012901D001207047022180F83D10016886
:10263000CA6842F00102CA6000680E4988420ED0A2
:102640000D4988420BD0B0F1804F08D00B49884229
:1026500005D00B49884202D00A49884204D18168DA
:1026600001F00701062903D0016841F00101016072
:1026700000207047002C014000340140000400405D
:1026800000080040000C00400168CA6822F0010206
:10269000CA6001680A6A41F211131A4207D10A6A34
:1026A0009B101A4203D10A6822F001020A6001213C
:1026B00080F83D100020704770472DE9F041044636
:1026C0000068C66805694FF00007A90713D5B10770
:1026D00011D5F91E016101202077206880698007EB
:1026E000204602D0FFF7E8FF04E000F07EF8204625
:1026F00000F07CF82777680716D5700714D5216895
:102700006FF004000861022020772068806910F4CF
:10271000407F204602D0FFF7CFFF04E000F065F8CD
:10272000204600F063F82777280715D5300713D522
:1027300021686FF008000861042020772068C069D4
:102740008007204602D0FFF7B7FF04E000F04DF805
:10275000204600F04BF82777E80616D5F00614D58A
:1027600021686FF010000861082020772068C06998
:1027700010F4407F204602D0FFF79EFF04E000F0F7
:1027800034F8204600F032F82777E80708D0F00741
:1027900006D021686FF001000861204600F027F89C
:1027A000280608D5300606D521686FF0800008613C
:1027B0002046FFF7A7FE680608D5700606D52168F3
:1027C0006FF040000861204600F012F8A8060AD514
:1027D000B00608D521686FF0200008612046BDE8EA
:1027E000F041FFF790BEBDE8F08170477047704739
:1027F000704770B5040004D094F84100002510B172
:1028000006E0012070BD84F84050204600F024F816
:10281000242084F841002068C16821F40051C1607F
:10282000204600F055FB2068016921F490410161C8
:102830002068416921F02A0141612068C16841F4A2
:102840000051C1606564202084F8410084F8420092
:102850006563002070BD000030B585B00024009491
:102860000194029403940068184988422CD11848B6
:10287000816941F480418161816901F48041049161
:10288000816941F0040181618069124D00F004000A
:1028900004904FF4007000900220019003200390F8
:1028A00069462846FFF772F82815CDE90004694605
:1028B00028460294FFF76AF8002201212520FFF73D
:1028C000E3F92520FFF7D3F905B030BD003801400A
:1028D00000100240000801402DE9F843044690F83A
:1028E0004100984616460D46202802D00220BDE839
:1028F000F88385B17EB100206064212084F8410016
:10290000FFF746F9A6848146E684A0682027B0F543
:10291000805F02D003E00120E9E7206910B12E4674
:1029200000250EE000260CE08021204600F02CFB64
:10293000A8B9C6B116F8010B21684860E08C401EAA
:10294000E084E08C4B464FF00002CDF80080002878
:10295000EAD14FF04001204600F016FB40B184F868
:1029600041700320C3E735F8020BC0F30800E3E72A
:1029700084F841700020BAE7FEE710B50446002055
:1029800003F044FAC4F3074000F011F8C4F3072041
:1029900000F00DF804F0F80000F009F8002000F055
:1029A00006F80446012003F031FA204610BD00F07D
:1029B00061B970B504460D46002003F027FAC4F350
:1029C0000740FFF7F4FFC4F30720FFF7F0FF04F020
:1029D000F800001DC0B2FFF7EAFF2846FFF7E7FF47
:1029E000BDE87040012003F011BA000010B501F0FD
:1029F000DBFF02F0A5FE02F0E1FD0949094803F002
:102A0000A5F8094801F063FA02E000BF01F0A2F95D
:102A1000002001F0C7FB1728F8D1002010BD0000EE
:102A20001E87002016870020FCB1002038B5FEF775
:102A300079F9FEF747FCFEF715FA154C02E000BFE6
:102A4000FEF72AFB20780028FAD01249684601F0E8
:102A5000CBFF0028F9D04FF480610F48FDF7D6FB7B
:102A60000D48B0F800146FF30E01A0F80014B0F890
:102A7000001421F40041A0F800140848FEF764F99E
:102A80000449684601F0B0FF0028F9D0002038BDA5
:102A900004800020D08700205CA1002020A1070036
:102AA0002DE9F04385B00024294800940194029454
:102AB0000394816941F008018161816901F0080195
:102AC0000491816941F480718161816901F48071AF
:102AD0000491816941F0040181618069DFF87480AB
:102AE00000F004000490012202214046FFF74AF85A
:102AF000DFF864904FF40247012239464846FFF759
:102B000041F8022001250326CDE90005CDE9024662
:102B100069464046FEF73AFF280200900F48CDE98B
:102B2000010569464846FEF731FF00970396CDE957
:102B3000015469464846FEF729FF00221146172036
:102B4000FFF7A2F81720FFF792F805B0BDE8F08371
:102B500000100240000C0140002001400000211044
:102B6000104810B50E4901604FF482714160002198
:102B700002228160C0E90312012242615202826195
:102B80000822C0E90721416281620A21C162FFF780
:102B900019FB002803D0BDE81040FEF7CFBD10BDE3
:102BA00000380040308700201CB500240F480094F6
:102BB0000D490194016040F2E731C0E90114472159
:102BC000C16080218161FFF7DDFC08B1FEF7B6FD31
:102BD0001020CDE9000469460448FFF795FC002861
:102BE00001D0FEF7ABFD1CBD00100040888700201F
:102BF00010B50F480D4C4FF4E131C0E90041002100
:102C000081600C22C160C0E904128161C161FFF7DB
:102C1000F0FD08B1FEF792FDE06840F02000E060B2
:102C2000BDE81040034801F0D9BE00000038014063
:102C3000D88B0020D0870020FEE7FEE77047F8B56C
:102C400015460E460B46009204460122022100F072
:102C500027F840B93346002280212046009500F035
:102C60001FF8002804D0606D40F02000606503204C
:102C7000F8BD000001B582B000208DF804000A20E4
:102C80000090012301AA02A90448FFF72FFB08B115
:102C900000200EBD9DF804000EBD0000308700200E
:102CA0002DE9F8431E46914688460446089DFEF7E6
:102CB0006FFF401B351AFEF76BFF0746254800687B
:102CC000C0F3CB30684338E0701C37D0FEF760FFAC
:102CD000C01BA84203D215B1009860B32CE0206855
:102CE000416821F0E00141606068B0F5827F0BD15E
:102CF000A068B0F5004F02D0B0F5806F04D1206815
:102D0000016821F040010160A06AB0F5005F09D1BF
:102D10002068016821F4005101602068016841F4D5
:102D200000510160012084F85100002084F8500017
:102D30000320BDE8F8830025401E009020688168CC
:102D400038EA010004D000214945BDD10020F0E758
:102D50000121F9E7248000207047FEF71FBF30B53E
:102D60008FB028216846FDF751FA14210AA8FDF713
:102D70004DFA01210804CDE9001000240294022537
:102D80000491CDE907504FF4E01009906846FFF731
:102D900089F808B172B6FEE70F20CDE90A054FF4B5
:102DA0008060CDE90C4002210AA80E94FEF79EFF38
:102DB000002801D072B6FEE70FB030BD70470000AA
:102DC00010B500F007F8BDE810400148FFF775BCEA
:102DD0008887002002480168491C01607047000094
:102DE00000800020F0B50268204C214D214E224F7A
:102DF000224B4FF0804CA04209D0984207D060454A
:102E000005D0A84203D0B04201D0B84204D122F08C
:102E1000700E4A6842EA0E02A04209D0984207D0DA
:102E2000604505D0A84203D0B04201D0B84203D1DA
:102E300022F44075CA682A434D6922F080022A4371
:102E400002608A68C2620A688262A04201D0984227
:102E500001D109690163012141610169C90703D0F9
:102E6000016921F001010161F0BD0000002C014069
:102E70000004004000080040000C00400034014005
:102E800001680C3151E8002F22F4907241E80023D0
:102E9000002BF5D10168143151E8002F22F0010216
:102EA00041E80023002BF5D1016B012909D101680C
:102EB0000C3151E8002F22F0100241E80023002BD2
:102EC000F5D1202180F842100021016370470000F5
:102ED00070B5044600680169E26821F4405111436D
:102EE00001612169A0680843616908432168CA68D3
:102EF00041F20C639A430243CA6020684169A269A7
:102F000021F44071114341611E492068884202D179
:102F1000FEF792FF01E0FEF77FFF00EBC00101EB3F
:102F20000012606864218000B2FBF0F3B3FBF1F3A0
:102F30006FF018067343B2FBF0F5B2FBF0F605EB49
:102F40008305322303EB0515B5FBF1F5B6FBF1F66E
:102F500005F0F00505EB0615B2FBF0F6B2FBF0F05C
:102F6000B0FBF1F06FF01802504306EB800003EB6A
:102F70000010B0FBF1F0216800F00F0028448860D9
:102F800070BD0000003801402DE9F843984617460F
:102F90000D460446089E24E0701C22D0FEF7F8FD82
:102FA000A0EB0800B0421AD8CEB12068C16849072A
:102FB00017D5802D15D0402D13D00168C9430907BE
:102FC0000FD401680025406800902046FFF758FFA5
:102FD0000820606484F840500120BDE8F883032095
:102FE000FBE72068006835EA000004D00020B84202
:102FF000D2D00020F1E70120F9E700004840034A61
:10300000C0B252F8200080EA11207047BC82002034
:1030100008480168090703D5016821F0080101602B
:103020000168890604D540680349C0B201F0F2BCCA
:103030007047000000380140D08700202DE9F84F8C
:10304000614F3868DFF88491DFF884A1614C800615
:103050004FF001084FF0000571D57868B9F80024E9
:10306000C0B24946C2F30E0240F2FF339A420CD27C
:10307000B1F80024B1F80064C2F30E028B18521CA0
:1030800062F30E06A1F8006418709AF8001041B1BE
:103090002178022249B101292CD0022943D0257080
:1030A0000FE04D4901F0B6FC49E061784BA35B5C51
:1030B00083420AD1491CC8B2607004283FD184F809
:1030C000008065706560658039E02B2804D0012997
:1030D00005D0022907D00BE084F801802FE04928B1
:1030E00006D162702BE0502802D10320607026E0E8
:1030F000657024E0A0F13001092907D8616801EB6F
:10310000810100EB41003038606018E03A2802D0BD
:103110002C2806D013E0606808B122700FE02570FB
:10312000E6E765600BE061882E4BB1F5006F02D2D7
:103130005854491C61806068401E606028D038681F
:10314000C00623D528480068016840680090B9F897
:10315000001441F40041A9F80014B9F800141B4808
:10316000C1F30E0109F8015020A102F00BFE10B1CD
:10317000214981F800809AF80000002806D02078C4
:10318000022803D02570657065606580BDE8F88F02
:103190008AB2022A02D31878AA2802D000269B46B7
:1031A0000BE01049154800F0F9FD09E01BF8060096
:1031B000094901F02FFC761CB6B260888642F5D32F
:1031C000257065707FE70000004800405CA100208A
:1031D0000480002010800020D08700202B4950441C
:1031E00000000000208D002060A50020434C4F53BC
:1031F00045440D0A00000000FA860020FCB10020C2
:103200000FB42DE9FF410CAC00251BE0252802D0AE
:103210006423012210E0491C0B910878642819D01E
:10322000732802D0491C0B910CE040CC304602F0D0
:10323000A1FD82B2642331461E48FFF74DFB0B9877
:10324000401C0B900B9908780028DFD1BDE8FF01E6
:103250005DF814FB01CC00266946002824D007DA6B
:103260004FF02D028DF80020C0F1000001F10101A6
:1032700042F210734FF00A0790FBF3F252EA060C89
:1032800006D002F1300601F8016B02FB13000126A3
:1032900093FBF7F3002BEFDC0D70684602F06AFD3C
:1032A00082B264236946C7E730208DF800008DF8AC
:1032B0000150F2E760A50020FEE700000FB4054BC7
:1032C00010B503A9044A029800F02AF910BC5DF871
:1032D00014FB0000AD4000082C8700200FB4084B01
:1032E00010B504A902AA039800F01AF9044602A92D
:1032F000002000F0ACFC204610BC5DF814FB000080
:103300004F3C00080907090E002804DB00F1E0200B
:1033100080F80014704700F00F0000F1E02080F802
:10332000141D704702E008C8121F08C1002AFAD114
:1033300070477047002001E001C1121F002AFBD135
:10334000704700002DE9FF5FDDE90220010DDDF887
:1033500038B0024318D044F61050A1F2FF31414377
:103360000D140F98012820D0A5EB0B00401C5FEA3C
:10337000000A4FF00004474EDFF81C91A04650466B
:1033800016D5CAF1000728E00F98012443A20128AE
:1033900008D0002100980F9BC0E90021C0E902433A
:1033A000BDE8FF9F6FEA0B01F4E7CBF10000DEE719
:1033B000074612E0F80707D0224633464046494602
:1033C000FDF74BF98046894622463346104619469A
:1033D000FDF743F904460E467F10002FEAD1DDE9E0
:1033E0000201BAF1000F42464B4602DAFDF735F909
:1033F00001E0FDF7A4F904460E460022284BFDF734
:1034000025FA03D84FF0FF30014607E00022254B94
:1034100020463146FDF77AF8FDF700FA102409E05E
:10342000002C0ADB0A220023FCF7FCFF019B303250
:103430001A55641E50EA0102F2D1641C019AC4F1CB
:10344000110314440F9A012A03D0012208430DD11D
:103450000AE0084304D000204FF0110B0F9080E7E2
:10346000A3EB0B056D1E0DE05B4504DD4FF0000284
:1034700005F1010504E003DA4FF00002A5F10105B2
:10348000002AECD000980F99C0E90231C0E900454C
:1034900086E70000000024400000F03F30000000FC
:1034A0000000F0430000E03F2DE9F04188468EB077
:1034B00015460446002100E0491C605C202803D02A
:1034C000092801D04145F7D34FF0FF3629B308AAA8
:1034D000142902D91421002001E0002002E0235C1D
:1034E0001354401C8842FAD300211154104600F0B6
:1034F0006BFD070011D020216846FCF787FE6A4665
:103500004146204601F0A6F838B1FA68694690476E
:10351000286000200EB0BDE8F0813046FAE70000D8
:103520002DE9FF4F95B09B468946064600250FE2E0
:10353000252877D100242746F84A0121059400E088
:10354000044316F8013F203B01FA03F01042F7D183
:1035500030782A2811D06FF02F033078A0F1300294
:10356000092A16D8059A44F0020402EB820203EB02
:1035700042021044761C0590EFE759F8042B05929F
:10358000002A03DA504244F40054059044F0020447
:10359000761C30782E2816D116F8010F44F004045A
:1035A0002A280DD06FF02F023078A0F13003092BBC
:1035B00009D807EB870302EB4303C718761CF3E730
:1035C00059F8047B761C30786C280FD006DC4C2828
:1035D00017D068280DD06A2814D104E0742810D0C0
:1035E0007A280FD10DE044F400140AE044F480146A
:1035F00001E044F440147278824202D104F5801450
:10360000761C761C307866280BD013DC582877D0CF
:1036100009DC002875D04528F6D04628F4D0472884
:103620001AD19DE118E0632835D0642879D0652847
:1036300012D195E1702873D008DC6728F1D0692891
:103640006FD06E280DD06F2806D1B5E073282CD02E
:10365000752875D0782874D05A46179990476D1CF4
:1036600075E1C4F30250022809D003280DD0D9F81F
:10367000001004280DD00D6009F1040967E1D9F8A4
:103680000010EA17C1E90052F6E7D9F800100D80E2
:10369000F2E70D70F0E719F8041B8DF80010002018
:1036A0008DF80100EA46012003E059F804AB4FF021
:1036B000FF3061074FF0000102D40DE008F1010175
:1036C0008846B9420FDA8045F8DB1AF8081000295D
:1036D000F4D108E008F1010188468142FADB1AF8CA
:1036E00008100029F6D105985B46A0EB0807214693
:1036F0003846179A00F094FA284400EB080507E0D2
:103700004DE029E10DE01AF8010B5A461799904750
:10371000B8F10108F7D25B4621463846179A13E103
:1037200042E00A220092C4F302524FF0000A022A39
:1037300008D059F804CB032A4FEAEC710AD00DE007
:1037400029E02AE009F1070121F00702F2E802C1AD
:10375000914609E00FFA8CFC4FEAEC71042A03D180
:103760004FFA8CFC4FEAEC71002907DA0A46002177
:10377000DCF1000C61EB02012D2202E0220504D5F0
:103780002B228DF80420012203E0E20701D0202241
:10379000F7E7904659E00A2102E010220DE01021DF
:1037A0004FF0000A00910BE010224FF0000A44F0A5
:1037B00004040827009203E008224FF0000A009258
:1037C000C4F30252022A05D059F804CB0021032A7F
:1037D00008D009E009F1070121F00702F2E802C16F
:1037E000914605E01FFA8CFC042A01D10CF0FF0C75
:1037F0004FF00008220728D5702806D0009B83F0E0
:10380000100353EA0A0305D00EE040228DF804208D
:10381000012208E05CEA010206D030228DF8042083
:103820008DF8050002229046009B83F0080353EABE
:103830000A030AD15CEA010201D1620705D53022F0
:103840008DF804204FF001087F1E582804D034A0C2
:1038500003900EA802900DE036A0F9E753466046AB
:10386000009AFCF7DFFD84460398825C0298401EB4
:10387000029002705CEA0100F0D1029806A9081AD1
:1038800000F1200A600702D524F4803400E001270B
:10389000574502DDA7EB0A0000E0002000EB0A011B
:1038A000009005984144401A0590E00306D45B4619
:1038B0002146179A059800F0B3F90544002706E061
:1038C00001A85A46C05D179990476D1C7F1C47455B
:1038D000F6DBE0030CD55B462146179A059800F00D
:1038E0009FF9054404E030205A46179990476D1C13
:1038F0000099481E00900029F5DC08E00298029922
:103900005A460078491C0291179990476D1CBAF1EC
:103910000001AAF1010AF1DC65E1000009280100BB
:103920003031323334353637383961626364656635
:1039300000000000303132333435363738394142F7
:10394000434445460000000000F058F90544761C49
:10395000307800287FF4ECAD19B02846BDE8F08F30
:10396000620700D4062709F1070222F0070CFCE8E1
:103970000223E14603F000485FEA080C02D00FF290
:10398000702C0DE05FEA045C02D50FF2682C07E0B2
:103990005FEAC47C02D00FF2602C01E0AFF2700C41
:1039A0004FF0FF3823F00043CDF850C065280CD00D
:1039B00006DC452809D046281DD047283DD13DE0EA
:1039C000662818D067287ED138E00021112F01DB4E
:1039D000112000E0781CCDE9000106A90EA8FFF730
:1039E000B1FCDDE90F010E9A03910021009207F16D
:1039F000010A04914DE04FF000400097CDE901101D
:103A000006A90EA8FFF79EFCDDE90F0203920E9BAC
:103A100011990022DDF80CA00093049211B9791CD1
:103A200000EB010AB7EB0A0004D4C0F1FF3007F144
:103A3000010A0490AAEB0700019044E0012F00DA8C
:103A400001270021112F01DD112000E03846CDE9CA
:103A5000000106A90EA8FFF775FCDDE90F010E9A1B
:103A60000391002104910092BA4621070CD40399D6
:103A7000514500DA8A46BAF1010F05DD009AAAF134
:103A80000101515C302908D0B84202DA10F1040F6C
:103A900006DA0121CDE9011015E0AAF10101E9E7FB
:103AA000002805DC049901440491AAEB000102E01E
:103AB000411C514500DD8A460499401A401C019082
:103AC0004FF000400290200704D40198504501DBDC
:103AD000CDF8048000208DF84F0002980DF14F07BB
:103AE000B0F1004F25D02B200E9002984FF0020825
:103AF00000280CDA404202902D200E9007E00A21A7
:103B00000298FCF779FC3031029007F8011DB8F1FA
:103B10000001A8F10108F2DC02980028EFD1791E1B
:103B20000E980870307800F0200040F0450007F84B
:103B3000020D12A8C01B00F107081498007800B10C
:103B4000012000EB0A01019801EBE0710598414466
:103B5000401A401E0590E00306D45B462146179AA2
:103B6000059800F05DF805441498007818B15A469D
:103B7000179990476D1CE00324D55B462146179AA0
:103B8000059800F04DF805441CE00498002807DB78
:103B9000DDE90301884203DD0098405C179901E0EC
:103BA000179930205A469047049805F10105401CAA
:103BB00004900198401E019004D12E205A46179976
:103BC00090476D1CBAF10001AAF1010ADDDC05E0A5
:103BD00017F8010B5A46179990476D1CB8F1000170
:103BE000A8F10108F4DC5B462146179A0598ABE67C
:103BF0002D0000002B000000200000002DE9F04106
:103C0000044600251E461746880404D405E03946BC
:103C10002020B0476D1C641EF9D52846BDE8F08110
:103C20002DE9F041044600251E469046C80301D503
:103C3000302700E02027880404D505E041463846B7
:103C4000B0476D1C641EF9D52846BDE8F0810A68AE
:103C5000531C0B601070704770B504464FF6FF7030
:103C600000224AF201050DE0A35C58400023C6077C
:103C700002D085EA500000E040085B1C082BF6DB10
:103C8000521C92B28A42EFD370BD70B505464FF414
:103C9000847000EB451004461021FEF78AFE204692
:103CA000FEF76BFE0028FAD14FF4027000EB4510CE
:103CB000BDE87040FF21FEF77CBE2DE9F0411546BE
:103CC000AA22069E1A705870280A98701C46DD7049
:103CD000042731B12DB1201D2A46FCF770FA2D1DA5
:103CE000AFB239462046FFF7B7FF010AE1557F1C06
:103CF000B9B26054491C88B2BB212154401C3080A9
:103D0000BDE8F0810849498848434FF0E021486107
:103D10000020886101220A610A69D30701D0D20319
:103D2000FAD508618861704726870020084909781C
:103D300048434FF0E02148610020886101220A6178
:103D40000A69D30701D0D203FAD5086188617047A8
:103D50002687002010B5002000F024FA50B1132867
:103D600011D0172814D01C2812D1BDE81040002013
:103D7000FFF78BBF0748202301210288BDE81040D0
:103D8000002001F099BEBDE81040002000F00DBBFE
:103D900010BD0000FE86002000F046BA2DE9FE436B
:103DA00000251646884604462F4652E0B4F802081D
:103DB00018F80520631C411CA4F80218C254B4F87A
:103DC0000208B0F5006F3ED304202070A4F80278FA
:103DD000BDE8FE836078AA2816D00120B4F8021846
:103DE00001E0401C80B2814203D922185278AA2AED
:103DF000F7D1814205D9091A8AB2A4F802282118FC
:103E00001DE0A4F8027822E0B4F802186A46601CAB
:103E100000F088FCD8B1BDF802006946C01D1FFA49
:103E200080F9204600F0A8FCB4F80218A1EB0900C4
:103E30000204120CA4F8022809D004EB0901601C4A
:103E4000491CFCF7BCF9B4F802080728C2D26D1C63
:103E5000ADB2B542AAD3BBE7FEB516460F4604463F
:103E6000002531E0B4F802087A5D631C411CA4F817
:103E70000218C254B4F80218B1F5006F05D304203B
:103E800020700020A4F80208FEBD07291AD36A4654
:103E9000601C00F047FCA8B1BDF802006946C01DD7
:103EA00085B2204600F068FCB4F80208401B02040A
:103EB000120CA4F8022804D06119601C491CFCF7FC
:103EC0007EF900256D1CADB2B542CBD3FEBD0021FD
:103ED000017000F58052A0F802185160916041F223
:103EE0000C024FF480711044FCF790B900B585B016
:103EF00004A80022009001AB11460420FFF7DDFE6C
:103F0000002000F04FF917280BD00948007800284E
:103F100005D00022BDF8101001A8FDF74DFA05B03C
:103F200000BDBDF8102001A9002001F0A6FAF6E7B7
:103F30000480002000B585B004A80022009001ABE9
:103F400011460520FFF7B9FE002000F02BF91728D5
:103F50000BD009480078002805D00022BDF81010C9
:103F600001A8FDF729FA05B000BDBDF8102001A990
:103F7000002001F082FAF6E70480002000B585B049
:103F800004A80022009001AB11460620FFF795FE21
:103F9000002000F007F917280BD009480078002806
:103FA00005D00022BDF8101001A8FDF705FA05B0F4
:103FB00000BDBDF8102001A9002001F05EFAF6E76F
:103FC000048000207B20704770B506460024084D11
:103FD00005E00068314601F0C1FE28B1641C55F8C7
:103FE00024000028F5D170BD55F8240070BD0000F4
:103FF0002C8000202DE9F0470C46054600F00EF914
:1040000006464FF0FF37052D02D0042D0AD032E0CE
:10401000A06801F071FE8146E06801F06DFE804607
:10402000206904E0A06801F067FE8046E06801F0C6
:1040300063FE054611A1606801F090FE50B111A128
:10404000606801F08BFE38B110A1606801F086FE57
:1040500040B110E0736800E0B3682A464146484624
:10406000984703E0F268294640469047A84202D1AB
:104070000020BDE8F0873846FBE700007265616408
:10408000000000007772697465000000657261735A
:104090006500000010B500F0B5F803498860002005
:1040A00048600860012010BD4C9A002013B50C48F0
:1040B0004FF4FA73012269468068FEF70DFC002078
:1040C00000F070F8172809D1FDF7C0FD01226946FC
:1040D000002001F0D2F91720FDF7C9FD00981CBDA2
:1040E00004800020024B0DCB81E80D0000207047BA
:1040F0004C9A002070B5034607480022856805E009
:1041000044689E5C2E55641C521C44608A42F7D35E
:1041100042680260084670BD4C9A002004220146A5
:10412000900101F083BE0000014931F81000704792
:10413000DCA90020014604224FF4706001F076BE35
:10414000014604224FF4A06001F070BE4FF40271EA
:1041500001EB4010FEF711BC2DE9F04142F208617D
:1041600001EB401542F20871002601EB401428468D
:10417000FEF703FC07462046FEF7FFFB00EB072097
:1041800007043F0C09D02846FEF7F7FB06462046F9
:10419000FEF7F3FB00EB062086B2BE42E7D13046C5
:1041A000BDE8F0814FF4427101EB4010FEF7E5BB32
:1041B0002DE9F04142F2080101EB401542F20811ED
:1041C000002601EB40142846FEF7D7FB07462046A1
:1041D000FEF7D3FB00EB072007043F0C09D028466D
:1041E000FEF7CBFB06462046FEF7C7FB00EB06209A
:1041F00086B2BE42E7D13046BDE8F0810048704744
:104200002C8000200148006870470000BC86002018
:1042100001480068704700004C9A00200048704731
:104220008C800020FFF7B8BD08B50449684600F04F
:10423000DBFB0028F9D19DF8000008BDD0870020E5
:104240002DE9FF410C460746214DFFF7E7FF0646E3
:10425000022F03D1606801F04FFD05464FF0FF3497
:104260008EB373687BB3102229466846984710289E
:1042700029D100204FEA0D0151F8202002B3521C31
:104280001ED0294613A0FFF719F872B61948FEF799
:10429000FBF94FF0E021002008614861886181004E
:1042A00001F1E021C1F88041C1F88042401C08289A
:1042B000F5D32846FBF74AFF002004B0BDE8F081A3
:1042C000401C0428D8DB0CA0FEF7F8FF2046F4E7DA
:1042D000009000084A756D70696E6720746F2061E8
:1042E0006464726573733A203078253038580D0A4B
:1042F0000000000088870020CCF8D7AAB5D8D6B730
:10430000B4A6CEDED5FDC8B7B4FAC2EB0D0A0000E4
:104310002DE9F0410E4607460024FFF76FFF0546E2
:10432000012F0ED0022F11D026E0006800F0D2FA43
:1043300013A000F0CFFA55F82400406800F0CAFA44
:10434000641C55F824000028EFD115E07068FFF7D1
:104350003BFE040007D0206800F0BCFA0AA000F081
:10436000B9FAA06806E009A000F0B4FA706800F09D
:10437000B1FA05A000F0AEFA0020BDE8F08100001F
:104380000909202D200900000D0A000063616E203C
:104390006E6F742066696E6420636F6D6D616E640C
:1043A000203A20004FF4E130704710B504464FF436
:1043B000427000EB4410FEF7E0FA132801D0002011
:1043C00010BD4FF4847000EB441004460221FEF748
:1043D000F0FA2046FEF7D1FA0028FAD1012010BDEC
:1043E00008B5FDF7E3FB314E0524FEF7B8FCFEF7F8
:1043F00057FBFEF7D9FBFEF7FBFBFEF7B1FB2C48A2
:10440000FEF70CF9482001F0DFFC2AA0FEF756FF6A
:1044100021462CA0FEF752FF324F3349684600F088
:10442000E3FA30B99DF80010202939D02FA0FEF70B
:1044300045FF00250A20FCF7A9FC38680068C04346
:10444000800602D56D1C642DF4DB641E21462AA073
:10445000FEF734FF002CE0DC29A0FEF72FFF72B638
:104460001348FEF711F94FF0E02100200861486180
:1044700088610146421E880000F1E020C0F88021DA
:10448000C0F88022491C0829F5D3314621A0FEF747
:1044900015FF3046FBF75AFE26A0FEF70FFFFBE79D
:1044A00027A0FEF70BFF01F061F9D5E700900008A7
:1044B000888700200D0A626F6F746C6F616465728B
:1044C000200D0A005072657373207370616365205C
:1044D000746F207374617274207368656C6C3A2514
:1044E000640D0A00D88B0020D08700205B3078252F
:1044F0003032585D0000000025640D0A0000000005
:104500000D0A537461727420415050202E2E2E0DCE
:104510000A0000004A756D70696E6720746F206133
:104520006464726573733A203078253038580D0A08
:1045300000000000CCF8D7AACAA7B0DC0D0A000022
:104540000D0A456E746572696E67207368656C6CE0
:104550002E2E2E0D0A00000070B501260C460228F2
:1045600003D0032806D0B01E70BD486801F0C4FB1C
:10457000054607E0606801F0BFFB0546A06801F052
:10458000BBFB06460AA0FEF799FE002408E000BF28
:1045900055F8242005EB840108A0FEF78FFE641C6B
:1045A000B442F5D309A0FEF789FE002070BD0000DB
:1045B00064617461733A0D0A0000000030782530A0
:1045C00038782C3078253038780D0A000D0A000034
:1045D00010B5002306E003780C781B1B04D1401CA7
:1045E000491C521E002AF6D1184610BD38B50446A3
:1045F00001E0491E641C20782028FAD00928F8D050
:1046000031B16A462046FEF74FFF18B1204604E05C
:10461000002038BD009838BD401C0178202901D009
:104620000029F9D100210170204600F053F903A0C0
:1046300000F050F94FF0FF3038BD000020636F6D7F
:104640006D616E64206E6F7420666F756E642E0DE2
:104650000A00000070B5002315461C461A464AE0C1
:1046600000F8012B5B1C0678202E01D0092E01D109
:104670008B42F5D3082C10D321A000F02BF9002693
:1046800005E000BF55F8260000F024F9761CA6428C
:10469000F8D323A000F01EF92FE08B422DD2F6B202
:1046A000222E03D045F82400641C1BE0401C45F872
:1046B00024005B1C641C08E05C2E04D14678222E8A
:1046C00001D1401C5B1C401C5B1C0678222E01D0D3
:1046D0008B42F1D38B4210D200F8012B5B1C0AE015
:1046E000401C5B1C0678202E03D0092E01D08B4283
:1046F000F6D38B4201D28B42B5D3204670BD000069
:10470000546F6F206D616E79206172677320212074
:104710005765206F6E6C79205573653A0A0000006A
:104720000D0A000010B5144607291ED30278AA2AE4
:104730001BD142786270428852BAD31D62808B428C
:1047400013D8011D121D616091B24218891C128894
:1047500089B252BA2281425CBB2A06D1891E89B233
:10476000FFF77AFA2189814201D0002010BD012093
:1047700010BD0120704700002DE9F0410E46497838
:10478000044600F58055012911D02E4F02292BD067
:10479000032952D0062904D0BDE8F0412AA0FEF733
:1047A0008DBDFFF7EBFB01202070BDE8F081716843
:1047B00041F20C00204411F8017B3A46FBF7FFFC64
:1047C000E11901F580510020087371687A1C0A44D0
:1047D0003F1D1268C95D12BA22F0FF020A43C5E903
:1047E00001200220207023E072880421B2F5805F4E
:1047F00004D92170BDE8F041FFF79CBBA868DFF841
:104800006CC08318634508D921702046FFF792FBDE
:10481000BDE8F04116A0FEF751BD1F4909680844E4
:10482000716801F05EFB7188A8680844A860386070
:104830002046BDE8F041FFF759BB03202070A8686F
:10484000F5E70000C08600205B5265636569766508
:10485000725D20556E6B6E6F776E206672616D654E
:1048600020747970653A2025640A0000FFFF0B2050
:104870005B52656365697665725D20546F74616C27
:104880002073697A652065786365656473206C6957
:104890006D6974210A000000BC860020FFF706BC89
:1048A0000349D1E901239854521C4A600A607047B9
:1048B0004C9A002070B50D460646002404E0305D99
:1048C0000349FFF7EBFF641CAC42F8DB70BD00004E
:1048D0002C87002010B5044603E00449FFF7DEFFF3
:1048E000641C20780028F8D110BD00002C8700201F
:1048F00070B5044615004FF0000010D0204600F0BF
:104900000FF84FF4847000EB441004464021FEF78A
:1049100050F82046FEF731F80028FAD1284670BD3D
:104920002DE9F0475FEA02088946044626D042F6A0
:10493000080000EB44163046FEF71FF8074642F623
:10494000081000EB44152846FEF717F800EB072087
:1049500087B2380200EB441042464946183001F055
:1049600065FA07EB080084B2210A3046FEF721F809
:10497000E1B22846BDE8F047FEF71BB82146BDE886
:10498000F04701A0FEF79ABC43483A202564205521
:104990006E657870656374656432206C656E6774EB
:1049A0006820300D0A00000070B50B4D4FF4004434
:1049B000002221462846FDF7E5F80220FFF7B6F968
:1049C000012221462846FDF7DDF8BDE870404FF48E
:1049D000C860FFF797B90000002001400021C0F82F
:1049E0000014C0F804147047D1F80424D1F800343E
:1049F0009A4202D14FF0FF307047D1F804248A5C0C
:104A00000270D1F80404401CC0F30900C1F804048A
:104A100000207047D1F80024D1F80434521CC2F3AE
:104A20000902934204D0D1F80034C854C1F80024DC
:104A3000704700003EB50D4C022803D1486801F0D4
:104A40005BF920600020CDE9000003460246029099
:104A5000014601F09FFE0146606005A0FEF72EFCB6
:104A60000AA02168FEF72AFC00203EBDBC8600207B
:104A70005265636569766564203078253038782022
:104A800062797465732E0D0A00000000536176652B
:104A9000642061742072616D206164647265737357
:104AA000203078253038780D0A0000002DE9FF4FBE
:104AB00087B017AC4FF4B36194E8C00F304C239D1E
:104AC0002046FBF7A3FB02A8169A0DF11C0C80E808
:104AD000C401DDE91401CDE900019CE80F0001F0FB
:104AE00039FCC4F854A5C4F88895206084F880B5D2
:104AF000002684F84C651D98C4F860051E98C4F81B
:104B00006C051F98C4F878052098C4F87C05219896
:104B1000C4F884052298C4F85C55C4F86805249844
:104B2000C4F864052598C4F874052698C4F83C6553
:104B3000C4F870054FF48071201DFBF767FBC4F8C3
:104B40004465C4F828652798C4F83465C4F8580546
:104B50000120C4F85005C4F86465801EC4F83865A7
:104B6000C4F848052898C4F88C052998C4F890051D
:104B70002A98C4F894050BB02046BDE8F08F0000D9
:104B80006C9A00202DE9FF470446D0F86C051546C5
:104B900088464FF0FF3A48B12F214046FBF74AFBC9
:104BA00020B110F8011F002977D0804641467F4888
:104BB000FBF737FB7D4801272860C4F8407594F85F
:104BC00080057BA608B184F84D0594F84C150020AB
:104BD000022902D0012903D008E0C4F8400505E00D
:104BE000D4F8681511B1032184F84C1594F84D15CB
:104BF000032904D194F84C15032900D06DA6D4F8EC
:104C0000381501B16CA68146C4F844056BA1404635
:104C100001F0A4F808B9C4F844756A48C5E90290DF
:104C2000C5F81C904046C5F8049001F0A3F800EBCD
:104C3000080717F8010FB8B103A8009001AB02AA4A
:104C400061A13846FBF716FB019868600298E8609E
:104C50000398A86010F4704F04D0D4F84005401CAD
:104C6000C4F84005387878B950485F2203E02F290E
:104C700000D10270401C01780029F8D110F8011D04
:104C80002E2901D180F800902068D0F83C0138BB73
:104C9000D4F85C0520B3454F08E067E0FBF77CFAE9
:104CA000016811F8080000071AD47F1C3878B0F1A9
:104CB0000008F3D1288910F4704F11D13B4F0BE05D
:104CC000FBF76AFA016811F80800C00603D54046F0
:104CD000FBF76FFA38707F1C3878B0F10008EFD11D
:104CE000D4F8943523B131486A68E9689847E8B345
:104CF000D4F85805002804DD2DA12C48FFF739FD14
:104D00001EE0D4F84005B8B194F84C05032813D13F
:104D100029A12648FFF7BEF9C4F8280528B1FFF7F6
:104D200051F96946FFF7DEF970B1C5F81890D4F86B
:104D3000280508B14FF0FF3031461C48FFF7AAF9AB
:104D4000C4F8280590B12BE094F84D0501260228FF
:104D50000AD1009BEA68D4F82815206801F016F9FA
:104D6000411C13D000B90026009800E01CE0E9685F
:104D700088424FEA90214FEA8121A9610ED86EB195
:104D80000022D4F828054FF0FF3048B1D4F82805A8
:104D90004FF0FF300C2004B0BDE8F087C5F8189044
:104DA000A86968610020F6E75046F4E7589A0020A9
:104DB0007700000061000000722B00002474637013
:104DC000242E740000943577256C64256C6F256F54
:104DD0000000000070B588B00446002000900190EB
:104DE000029003900490059006900790204600F0F2
:104DF000ADFA4FF0FF35C0B10F2838D0401C2ED08F
:104E00006E463146204600F035F8A84227D00528E6
:104E100003D00B2801D010BB29E0204600F096FA01
:104E20000428EED00F281AD121E004F225163246CC
:104E30006946204600F018F9401C10D094F825016E
:104E4000002812D06A4631462046FFF79BFE401CE0
:104E500005D06946204600F0F9F9401CE7D12068EA
:104E60000121006801F010FD284608B070BD002047
:104E7000FBE700002DE9F04F4FF0000989B00D4627
:104E8000CDF804900A46C1F81C9000F225110446A2
:104E9000C8464E46CB464FF0140A0091FFF772FE0B
:104EA000401C09D004F5827008906969206801F0FF
:104EB00061FC0921206898E00520C4F8500509B07C
:104EC000BDE8F08F0021206801F07BF90746801CC7
:104ED0000E2870D2DFE800F0078C979797970C2583
:104EE000079797972B14AAF101005FEA000A62D492
:104EF00001AB4FF480622068009901F075FBD4E7A4
:104F0000206801F0CFFB6969884202D0C4F834B54B
:104F1000D8E7D4F8904524B1D5E9000300212A69E7
:104F2000A0473846CBE7089800F0E4FFBDE72068CB
:104F300001F0B8FB696988420FD0206801F0B2FB2C
:104F4000AAF101005FEA000A5DD401AB4FF4806270
:104F50002068009901F048FBE5E74FF4B47700BF03
:104F6000D4F8780508B1032106E0D4F8841511B906
:104F7000D4F88C1561B10721B14204DB6B6909EBF0
:104F800058018B4204D980460026D5F8149000E0E1
:104F9000761C01AB4FF480622068009901F024FB7D
:104FA000B84254D008DC10F1020F27D0B0F1FF3F17
:104FB0001ED01028A3D126E0A0F58070693839D022
:104FC000012823D002289AD1DDE900234FF0140AEA
:104FD0002946204600F090F9686901990144696109
:104FE000206801F0C7FB8321206801F067FB69E7B7
:104FF000AAF101005FEA000A05D494E7AAF10100D2
:105000005FEA000A92D54FF0FF3058E7DDE9002350
:105010004FF0140A2946204600F06EF9686901999C
:1050200001446961206801F0A5FB0321206801F0BB
:1050300045FB95E7DDE900234FF0140A2946204699
:1050400000F05AF9686901990844686188E7DDE968
:1050500000234FF0140A2946204600F04DF96869F4
:105060000199084468612DE72DE9F84300250446BD
:10507000009500680E4690460068012101F011FC81
:105080005FF00107C4F8307519494320F561FFF757
:1050900005FC1748002000BF2068006801F000FCF4
:1050A000642342466946204600F024F8B0B10A3035
:1050B00003D04FF0FF30BDE8F8830D490620FFF71D
:1050C000EDFB0B48002000BF2068006801F0E8FB02
:1050D00020680121006801F0E4FBD3E704490620C1
:1050E000FFF7DCFB0248002000BF0020E3E70000E0
:1050F0002C8700202DE9FF4F044681B04FF00008B7
:10510000C4F82C8589464FF0FF3BC0F834852068F1
:105110000499006801F0C5FB022806D0012809D0D7
:1051200004284DD018285AD051E04FF48060C9F8B7
:10513000000002E08021C9F8001020680121006809
:1051400001F0AFFB824620680121006801F0A9FB55
:1051500081B201EB0A00FF2839D100200090039DA5
:10516000D9F800700BE000BF01F09BFB06002ED4C5
:10517000B0B2009900F03EFE009005F8016B206887
:105180007F1E4FF001010068EED501F08AFB002878
:105190001DDB80B2009900F02DFE0546206801213C
:1051A000006801F07EFB002811DB80B2294600F088
:1051B00021FE60B95046C4F8308505B0BDE8F08FD7
:1051C00020680121006801F06CFB801C04D040F2D3
:1051D000E735C4F82C850EE06FF00900EDE7D4F850
:1051E0002C05182803D01820C4F82C051DE05846BB
:1051F000E3E76D1E06D320680121006801F051FB32
:10520000801CF6D1D4F8300510B10F49432003E0DB
:10521000282004900C491520FFF740FB0A48002085
:1052200000BF2068006801F03BFBD4F83405401C47
:10523000C4F834050A28FFF66AAF20680121006827
:1052400001F022FBD3E700002C8700202DE9F84372
:10525000044601200025C4F830050E4643204FF0D7
:10526000FF3804F22517CD612249FFF717FB2148CB
:10527000002000BF2068006801F012FB680601D022
:10528000322300E082233A4669462046FFF732FF88
:10529000691CC9B2814214D1F0686D1C28B17169D2
:1052A000401A0099884200D200907069009B3A46EB
:1052B000184470613146204600F01EF8401C08D0AA
:1052C00002E0E9B2814201D10620CDE710F10A0FD8
:1052D00002D04046BDE8F88306490620FFF7DEFA13
:1052E0000448002000BF2068006801F0D9FA0020BF
:1052F000F0E700002C8700202DE9F0411D00144646
:105300000F4606461DD0D6F8400560B10122294659
:105310002046D6F82835FEF7EDFE012811D04FF0D3
:10532000FF30BDE8F081F86958B920780D2805D024
:105330001A2808D0D6F82815FFF7B2FA641C6D1E9B
:10534000F3D10020EDE70120F861FAE72DE9FC5FD9
:1053500000250446019500682F46D0F83C0108B1AD
:105360000F2600E005264FF0010840F26B194FF0C0
:10537000FF3A2AE000972068016A09B1632100E042
:10538000232100231A4601F0FDF9D4F850152068B6
:1053900001F094F9D4F85005052801D1C4F85085DE
:1053A0000021206800F00DFF801C14280DD2DFE8DA
:1053B00000F00C0C0B62410C140C0C0C5D0C0C0C72
:1053C0000C0C0C0A625AEBE76D1C761EEE4201D4FF
:1053D0000A2DCFDB0020BDE8FC9F2068C17984F84E
:1053E0004C1509B984F84C8581790A0604D521F059
:1053F00080018171C4F83885206801AB4FF4806268
:10540000817984F84D15417984F84E1504F22511FF
:10541000C4F8508501F0E8F8834603210020FEF728
:10542000C1FF2168CB45886101D10420D3E7062163
:10543000206815E0206801ABC279016A02F04002E1
:1054400011430162202204F58271206801F0CCF83A
:105450004845ECD10121206801F08CF90321206836
:1054600001F02CF99CE751462068F5E7206800F030
:105470006DFD0F20AFE75046ADE72DE9F041154631
:1054800088460746FEF750FEA84203D23846FEF78C
:105490004BFE05464FF4427000EB47163846FEF7C8
:1054A00087FE04463046FDF768FA172803D01C280B
:1054B00001D0002501E0AC42F0D32A4641463846EF
:1054C00000F02DF84FF4847000EB471004462021C3
:1054D000FDF76FFA2046FDF750FA0028FAD14FF495
:1054E000027000EB47142046FDF747FAC0060CD4C3
:1054F0003046FDF742FA1728F5D01C28F3D038467D
:10550000FEF7C3FB0020BDE8F08120461021FDF727
:1055100050FA20461021FDF74CFA2846F3E72DE912
:10552000F0475FEA02088946064626D042F2084064
:1055300000EB46152846FDF720FA074642F20850D0
:1055400000EB46142046FDF718FA00EB072087B25F
:10555000380200EB461042464946103000F09CFCF1
:1055600007EB080086B2310A2846FDF722FAF1B2AD
:105570002046BDE8F047FDF71CBABDE8F08770474C
:1055800004220146900100F087BC014606224FF438
:10559000106000F081BC014604224FF4706000F0FE
:1055A0007BBC014604224FF4A06000F075BC4FF4B0
:1055B000027202EB4010FDF7FCB9000038B539204B
:1055C000FDF7DBF9014631A0FDF778FE374C364890
:1055D0006169C0F81610218B41836168C161A168BF
:1055E0000162E168416221698162207810B930A0CE
:1055F000FDF764FE2C4D01201635A8760020E876D4
:1056000005F10A00FFF7CDFF05F10E00FFF7B8FF27
:10561000A81DFFF7C0FF2548001DFEF78BFD23489E
:10562000001DC178009183784278017828A0FDF7A9
:1056300045FE1E480830FEF783FD1C480830C1783F
:10564000009183784278017829A0FDF737FE17484A
:105650000C30FEF763FD15480C30C178009183785B
:10566000427801782AA0FDF729FE618830A0FDF775
:1056700025FE042142F60840FDF79BF9BDE83840BD
:1056800001214FF4C050FDF794B900002057353583
:1056900030302056657273696F6E3A20307825304D
:1056A00032580D0A00000000AAA90020FC86002044
:1056B00020CAB9D3C3B6A8D2E5B5C44950D0C5CF26
:1056C000A2C5E4D6C357353530300D0A00000000BE
:1056D000205735353030204950B5D8D6B720202056
:1056E0003A2025642E25642E25642E25640D0A009B
:1056F00020573535303020D7D3CDF8D1DAC2EB2062
:105700003A2025642E25642E25642E25640D0A007A
:1057100020573535303020CDF8B9D8202020202032
:105720003A2025642E25642E25642E25640D0A005A
:1057300020B6CBBFDA203A2025750D0A0000000004
:1057400070B5094C074D6069C5F81600208B688359
:1057500005F11600FFF719FF60692860208BA8800B
:1057600070BD0000AAA90020FC860020884DDFF84B
:105770002482687840F001006870D8F80000FFF7D4
:10578000A9F82E4606F2B749002706F2B64600BF32
:10579000FEF74AFD0400FBD41B2C05D02878012815
:1057A00004D0022809D011E0012004E05B2C01D0D4
:1057B0002F700BE002202870EAE72F70412C32D0C6
:1057C000422C37D0442C56D0432C5FD0002CDFD055
:1057D000FF2CDDD0092C07D07F2C66D0082C64D09C
:1057E0000D2C7DD00A2C7BD0B5F80805502801D3AC
:1057F000A5F80875B5F80A05B5F80815884270D2FD
:105800000A1A81194844FAF7DAFCB5F80A058455F2
:105810006878C00704D0B5F80A053044FFF75AF895
:10582000B5F80A4596E068880028B1D0401E80B2DD
:1058300068800CE0A88869880246401E814202DA2E
:10584000491C698002E0002AA2D068806888502242
:1058500000EB800005EB00113046891DFAF7AFFC24
:10586000304600F087FAA5F80805A5F80A0548486B
:1058700000F09AF88CE7B5F80A05002888D046A011
:10588000FFF728F8B5F80A05401E0BE0B5F80A0541
:10589000B5F8081588428FD2805D00F0FDF8B5F8A4
:1058A0000A05401CA5F80A0572E7B5F80A050028A4
:1058B000E0D0B5F80815401E491E89B280B2A5F89F
:1058C0000815A5F80A05814222D90A1A00EB090138
:1058D0003044FAF774FCB5F808058755082001E054
:1058E0001DE03CE000F0D8F8B5F80A053044FEF7BA
:1058F000F1FF2AA0FEF7EEFFB5F80A4503E026A067
:10590000FEF7E8FF641CB5F80805A042B2DBF6E735
:1059100023A0FEF7DFFFB5F80805875538E71C48D8
:1059200000F060F86878C00702D01EA0FEF7D2FF32
:10593000B5F808153046FEF759FED8F80000FEF716
:10594000C9FF51213046FAF761FC1CE012A0FEF7B6
:10595000C1FF641CB5F80805A042F7DC06E08C55D1
:105960006878C00702D0204600F096F8B5F8080520
:10597000401C80B2A5F80805B5F80A15491CA5F821
:105980000A15502890D3A5F80875A5F80A75FFE602
:1059900040950020288000200800000020200800FA
:1059A000082008000D0A000010B50BA0FEF792FFBA
:1059B0000024202000F070F8641C3C2CF9DD06A0C7
:1059C000FEF788FF05480068FEF784FF0448FEF7ED
:1059D00081FF002010BD00000D0000002880002085
:1059E000F699002070B52B4CB4F80805E8B3A088F0
:1059F00004F2B6460F2824D35022314604F2664002
:105A0000FEF7E6FD88B3002505EB850004EB0010EA
:105A100000F156015022801DFAF7D1FB6D1C0E2DAE
:105A2000F2DB05EB850004EB0015A81D5021FAF709
:105A3000EDFBB4F80825A81D3146FAF7C0FB0F208E
:105A400023E048B100EB800004EB00105022314607
:105A50004A38FEF7BDFD40B1A088608000EB8000B1
:105A600004EB00105021801D00E00FE0FAF7CEFBA0
:105A7000A088B4F8082500EB800004EB0010314644
:105A8000801DFAF79CFBA088401CA080A088608045
:105A900070BD00004095002001B505484FF0FF3370
:105AA000012269468068FCF717FF009808BD0000D6
:105AB00004800020002070472DE9F041054601F0E8
:105AC0000F001F4616460C4601280AD0022808D0AF
:105AD000032806D0042804D0052802D00020BDE801
